{
    "contractName": "TOKENDividendTracker",
    "abi": [
        {
            "inputs": [
                {
                    "internalType": "address",
                    "name": "tracker",
                    "type": "address"
                }
            ],
            "stateMutability": "nonpayable",
            "type": "constructor"
        },
        {
            "anonymous": false,
            "inputs": [
                {
                    "indexed": true,
                    "internalType": "address",
                    "name": "owner",
                    "type": "address"
                },
                {
                    "indexed": true,
                    "internalType": "address",
                    "name": "spender",
                    "type": "address"
                },
                {
                    "indexed": false,
                    "internalType": "uint256",
                    "name": "value",
                    "type": "uint256"
                }
            ],
            "name": "Approval",
            "type": "event"
        },
        {
            "anonymous": false,
            "inputs": [
                {
                    "indexed": true,
                    "internalType": "address",
                    "name": "account",
                    "type": "address"
                },
                {
                    "indexed": false,
                    "internalType": "uint256",
                    "name": "amount",
                    "type": "uint256"
                },
                {
                    "indexed": true,
                    "internalType": "bool",
                    "name": "automatic",
                    "type": "bool"
                }
            ],
            "name": "Claim",
            "type": "event"
        },
        {
            "anonymous": false,
            "inputs": [
                {
                    "indexed": true,
                    "internalType": "uint256",
                    "name": "newValue",
                    "type": "uint256"
                },
                {
                    "indexed": true,
                    "internalType": "uint256",
                    "name": "oldValue",
                    "type": "uint256"
                }
            ],
            "name": "ClaimWaitUpdated",
            "type": "event"
        },
        {
            "anonymous": false,
            "inputs": [
                {
                    "indexed": true,
                    "internalType": "address",
                    "name": "to",
                    "type": "address"
                },
                {
                    "indexed": false,
                    "internalType": "uint256",
                    "name": "weiAmount",
                    "type": "uint256"
                }
            ],
            "name": "DividendWithdrawn",
            "type": "event"
        },
        {
            "anonymous": false,
            "inputs": [
                {
                    "indexed": true,
                    "internalType": "address",
                    "name": "from",
                    "type": "address"
                },
                {
                    "indexed": false,
                    "internalType": "uint256",
                    "name": "weiAmount",
                    "type": "uint256"
                }
            ],
            "name": "DividendsDistributed",
            "type": "event"
        },
        {
            "anonymous": false,
            "inputs": [
                {
                    "indexed": true,
                    "internalType": "address",
                    "name": "account",
                    "type": "address"
                }
            ],
            "name": "ExcludeFromDividends",
            "type": "event"
        },
        {
            "anonymous": false,
            "inputs": [
                {
                    "indexed": true,
                    "internalType": "address",
                    "name": "previousOwner",
                    "type": "address"
                },
                {
                    "indexed": true,
                    "internalType": "address",
                    "name": "newOwner",
                    "type": "address"
                }
            ],
            "name": "OwnershipTransferred",
            "type": "event"
        },
        {
            "anonymous": false,
            "inputs": [
                {
                    "indexed": true,
                    "internalType": "address",
                    "name": "from",
                    "type": "address"
                },
                {
                    "indexed": true,
                    "internalType": "address",
                    "name": "to",
                    "type": "address"
                },
                {
                    "indexed": false,
                    "internalType": "uint256",
                    "name": "value",
                    "type": "uint256"
                }
            ],
            "name": "Transfer",
            "type": "event"
        },
        {
            "inputs": [
                {
                    "internalType": "address",
                    "name": "_owner",
                    "type": "address"
                }
            ],
            "name": "accumulativeDividendOf",
            "outputs": [
                {
                    "internalType": "uint256",
                    "name": "",
                    "type": "uint256"
                }
            ],
            "stateMutability": "view",
            "type": "function"
        },
        {
            "inputs": [
                {
                    "internalType": "address",
                    "name": "owner",
                    "type": "address"
                },
                {
                    "internalType": "address",
                    "name": "spender",
                    "type": "address"
                }
            ],
            "name": "allowance",
            "outputs": [
                {
                    "internalType": "uint256",
                    "name": "",
                    "type": "uint256"
                }
            ],
            "stateMutability": "view",
            "type": "function"
        },
        {
            "inputs": [
                {
                    "internalType": "address",
                    "name": "spender",
                    "type": "address"
                },
                {
                    "internalType": "uint256",
                    "name": "amount",
                    "type": "uint256"
                }
            ],
            "name": "approve",
            "outputs": [
                {
                    "internalType": "bool",
                    "name": "",
                    "type": "bool"
                }
            ],
            "stateMutability": "nonpayable",
            "type": "function"
        },
        {
            "inputs": [
                {
                    "internalType": "address",
                    "name": "account",
                    "type": "address"
                }
            ],
            "name": "balanceOf",
            "outputs": [
                {
                    "internalType": "uint256",
                    "name": "",
                    "type": "uint256"
                }
            ],
            "stateMutability": "view",
            "type": "function"
        },
        {
            "inputs": [],
            "name": "busdTracker",
            "outputs": [
                {
                    "internalType": "address",
                    "name": "",
                    "type": "address"
                }
            ],
            "stateMutability": "view",
            "type": "function"
        },
        {
            "inputs": [],
            "name": "claimWait",
            "outputs": [
                {
                    "internalType": "uint256",
                    "name": "",
                    "type": "uint256"
                }
            ],
            "stateMutability": "view",
            "type": "function"
        },
        {
            "inputs": [],
            "name": "decimals",
            "outputs": [
                {
                    "internalType": "uint8",
                    "name": "",
                    "type": "uint8"
                }
            ],
            "stateMutability": "view",
            "type": "function"
        },
        {
            "inputs": [
                {
                    "internalType": "address",
                    "name": "spender",
                    "type": "address"
                },
                {
                    "internalType": "uint256",
                    "name": "subtractedValue",
                    "type": "uint256"
                }
            ],
            "name": "decreaseAllowance",
            "outputs": [
                {
                    "internalType": "bool",
                    "name": "",
                    "type": "bool"
                }
            ],
            "stateMutability": "nonpayable",
            "type": "function"
        },
        {
            "inputs": [
                {
                    "internalType": "uint256",
                    "name": "amount",
                    "type": "uint256"
                }
            ],
            "name": "distributeDividends",
            "outputs": [],
            "stateMutability": "nonpayable",
            "type": "function"
        },
        {
            "inputs": [
                {
                    "internalType": "address",
                    "name": "_owner",
                    "type": "address"
                }
            ],
            "name": "dividendOf",
            "outputs": [
                {
                    "internalType": "uint256",
                    "name": "",
                    "type": "uint256"
                }
            ],
            "stateMutability": "view",
            "type": "function"
        },
        {
            "inputs": [
                {
                    "internalType": "address",
                    "name": "account",
                    "type": "address"
                }
            ],
            "name": "excludeFromDividends",
            "outputs": [],
            "stateMutability": "nonpayable",
            "type": "function"
        },
        {
            "inputs": [
                {
                    "internalType": "address",
                    "name": "",
                    "type": "address"
                }
            ],
            "name": "excludedFromDividends",
            "outputs": [
                {
                    "internalType": "bool",
                    "name": "",
                    "type": "bool"
                }
            ],
            "stateMutability": "view",
            "type": "function"
        },
        {
            "inputs": [
                {
                    "internalType": "address",
                    "name": "_account",
                    "type": "address"
                }
            ],
            "name": "getAccount",
            "outputs": [
                {
                    "internalType": "address",
                    "name": "account",
                    "type": "address"
                },
                {
                    "internalType": "int256",
                    "name": "index",
                    "type": "int256"
                },
                {
                    "internalType": "int256",
                    "name": "iterationsUntilProcessed",
                    "type": "int256"
                },
                {
                    "internalType": "uint256",
                    "name": "withdrawableDividends",
                    "type": "uint256"
                },
                {
                    "internalType": "uint256",
                    "name": "totalDividends",
                    "type": "uint256"
                },
                {
                    "internalType": "uint256",
                    "name": "lastClaimTime",
                    "type": "uint256"
                },
                {
                    "internalType": "uint256",
                    "name": "nextClaimTime",
                    "type": "uint256"
                },
                {
                    "internalType": "uint256",
                    "name": "secondsUntilAutoClaimAvailable",
                    "type": "uint256"
                }
            ],
            "stateMutability": "view",
            "type": "function"
        },
        {
            "inputs": [
                {
                    "internalType": "uint256",
                    "name": "index",
                    "type": "uint256"
                }
            ],
            "name": "getAccountAtIndex",
            "outputs": [
                {
                    "internalType": "address",
                    "name": "",
                    "type": "address"
                },
                {
                    "internalType": "int256",
                    "name": "",
                    "type": "int256"
                },
                {
                    "internalType": "int256",
                    "name": "",
                    "type": "int256"
                },
                {
                    "internalType": "uint256",
                    "name": "",
                    "type": "uint256"
                },
                {
                    "internalType": "uint256",
                    "name": "",
                    "type": "uint256"
                },
                {
                    "internalType": "uint256",
                    "name": "",
                    "type": "uint256"
                },
                {
                    "internalType": "uint256",
                    "name": "",
                    "type": "uint256"
                },
                {
                    "internalType": "uint256",
                    "name": "",
                    "type": "uint256"
                }
            ],
            "stateMutability": "view",
            "type": "function"
        },
        {
            "inputs": [],
            "name": "getLastProcessedIndex",
            "outputs": [
                {
                    "internalType": "uint256",
                    "name": "",
                    "type": "uint256"
                }
            ],
            "stateMutability": "view",
            "type": "function"
        },
        {
            "inputs": [],
            "name": "getNumberOfTokenHolders",
            "outputs": [
                {
                    "internalType": "uint256",
                    "name": "",
                    "type": "uint256"
                }
            ],
            "stateMutability": "view",
            "type": "function"
        },
        {
            "inputs": [
                {
                    "internalType": "address",
                    "name": "spender",
                    "type": "address"
                },
                {
                    "internalType": "uint256",
                    "name": "addedValue",
                    "type": "uint256"
                }
            ],
            "name": "increaseAllowance",
            "outputs": [
                {
                    "internalType": "bool",
                    "name": "",
                    "type": "bool"
                }
            ],
            "stateMutability": "nonpayable",
            "type": "function"
        },
        {
            "inputs": [
                {
                    "internalType": "address",
                    "name": "",
                    "type": "address"
                }
            ],
            "name": "lastClaimTimes",
            "outputs": [
                {
                    "internalType": "uint256",
                    "name": "",
                    "type": "uint256"
                }
            ],
            "stateMutability": "view",
            "type": "function"
        },
        {
            "inputs": [],
            "name": "lastProcessedIndex",
            "outputs": [
                {
                    "internalType": "uint256",
                    "name": "",
                    "type": "uint256"
                }
            ],
            "stateMutability": "view",
            "type": "function"
        },
        {
            "inputs": [],
            "name": "minimumTokenBalanceForDividends",
            "outputs": [
                {
                    "internalType": "uint256",
                    "name": "",
                    "type": "uint256"
                }
            ],
            "stateMutability": "view",
            "type": "function"
        },
        {
            "inputs": [],
            "name": "name",
            "outputs": [
                {
                    "internalType": "string",
                    "name": "",
                    "type": "string"
                }
            ],
            "stateMutability": "view",
            "type": "function"
        },
        {
            "inputs": [],
            "name": "owner",
            "outputs": [
                {
                    "internalType": "address",
                    "name": "",
                    "type": "address"
                }
            ],
            "stateMutability": "view",
            "type": "function"
        },
        {
            "inputs": [
                {
                    "internalType": "uint256",
                    "name": "gas",
                    "type": "uint256"
                }
            ],
            "name": "process",
            "outputs": [
                {
                    "internalType": "uint256",
                    "name": "",
                    "type": "uint256"
                },
                {
                    "internalType": "uint256",
                    "name": "",
                    "type": "uint256"
                },
                {
                    "internalType": "uint256",
                    "name": "",
                    "type": "uint256"
                }
            ],
            "stateMutability": "nonpayable",
            "type": "function"
        },
        {
            "inputs": [
                {
                    "internalType": "address payable",
                    "name": "account",
                    "type": "address"
                },
                {
                    "internalType": "bool",
                    "name": "automatic",
                    "type": "bool"
                }
            ],
            "name": "processAccount",
            "outputs": [
                {
                    "internalType": "bool",
                    "name": "",
                    "type": "bool"
                }
            ],
            "stateMutability": "nonpayable",
            "type": "function"
        },
        {
            "inputs": [],
            "name": "renounceOwnership",
            "outputs": [],
            "stateMutability": "nonpayable",
            "type": "function"
        },
        {
            "inputs": [
                {
                    "internalType": "address payable",
                    "name": "account",
                    "type": "address"
                },
                {
                    "internalType": "uint256",
                    "name": "newBalance",
                    "type": "uint256"
                }
            ],
            "name": "setBalance",
            "outputs": [],
            "stateMutability": "nonpayable",
            "type": "function"
        },
        {
            "inputs": [],
            "name": "symbol",
            "outputs": [
                {
                    "internalType": "string",
                    "name": "",
                    "type": "string"
                }
            ],
            "stateMutability": "view",
            "type": "function"
        },
        {
            "inputs": [],
            "name": "totalDividendsDistributed",
            "outputs": [
                {
                    "internalType": "uint256",
                    "name": "",
                    "type": "uint256"
                }
            ],
            "stateMutability": "view",
            "type": "function"
        },
        {
            "inputs": [],
            "name": "totalSupply",
            "outputs": [
                {
                    "internalType": "uint256",
                    "name": "",
                    "type": "uint256"
                }
            ],
            "stateMutability": "view",
            "type": "function"
        },
        {
            "inputs": [
                {
                    "internalType": "address",
                    "name": "recipient",
                    "type": "address"
                },
                {
                    "internalType": "uint256",
                    "name": "amount",
                    "type": "uint256"
                }
            ],
            "name": "transfer",
            "outputs": [
                {
                    "internalType": "bool",
                    "name": "",
                    "type": "bool"
                }
            ],
            "stateMutability": "nonpayable",
            "type": "function"
        },
        {
            "inputs": [
                {
                    "internalType": "address",
                    "name": "sender",
                    "type": "address"
                },
                {
                    "internalType": "address",
                    "name": "recipient",
                    "type": "address"
                },
                {
                    "internalType": "uint256",
                    "name": "amount",
                    "type": "uint256"
                }
            ],
            "name": "transferFrom",
            "outputs": [
                {
                    "internalType": "bool",
                    "name": "",
                    "type": "bool"
                }
            ],
            "stateMutability": "nonpayable",
            "type": "function"
        },
        {
            "inputs": [
                {
                    "internalType": "address",
                    "name": "newOwner",
                    "type": "address"
                }
            ],
            "name": "transferOwnership",
            "outputs": [],
            "stateMutability": "nonpayable",
            "type": "function"
        },
        {
            "inputs": [
                {
                    "internalType": "uint256",
                    "name": "newClaimWait",
                    "type": "uint256"
                }
            ],
            "name": "updateClaimWait",
            "outputs": [],
            "stateMutability": "nonpayable",
            "type": "function"
        },
        {
            "inputs": [],
            "name": "withdrawDividend",
            "outputs": [],
            "stateMutability": "pure",
            "type": "function"
        },
        {
            "inputs": [
                {
                    "internalType": "address",
                    "name": "_owner",
                    "type": "address"
                }
            ],
            "name": "withdrawableDividendOf",
            "outputs": [
                {
                    "internalType": "uint256",
                    "name": "",
                    "type": "uint256"
                }
            ],
            "stateMutability": "view",
            "type": "function"
        },
        {
            "inputs": [
                {
                    "internalType": "address",
                    "name": "_owner",
                    "type": "address"
                }
            ],
            "name": "withdrawnDividendOf",
            "outputs": [
                {
                    "internalType": "uint256",
                    "name": "",
                    "type": "uint256"
                }
            ],
            "stateMutability": "view",
            "type": "function"
        }
    ],
    "bytecode": "60c06040523480156200001157600080fd5b50604051620020e0380380620020e083398101604081905262000034916200020f565b6040518060400160405280601581526020017f544f4b454e5f4469766964656e5f547261636b657200000000000000000000008152506040518060400160405280601681526020017f544f4b454e5f4469766964656e645f547261636b6572000000000000000000008152508282828160039080519060200190620000bb92919062000169565b508051620000d190600490602084019062000169565b505050620000ee620000e86200011360201b60201c565b62000117565b6001600160a01b03166080525050610e10601155506512309ce5400060a0526200027e565b3390565b600580546001600160a01b038381166001600160a01b0319831681179093556040519116919082907f8be0079c531659141344cd1fd0a4f28419497f9722a3daafe3b4186f6b6457e090600090a35050565b828054620001779062000241565b90600052602060002090601f0160209004810192826200019b5760008555620001e6565b82601f10620001b657805160ff1916838001178555620001e6565b82800160010185558215620001e6579182015b82811115620001e6578251825591602001919060010190620001c9565b50620001f4929150620001f8565b5090565b5b80821115620001f45760008155600101620001f9565b6000602082840312156200022257600080fd5b81516001600160a01b03811681146200023a57600080fd5b9392505050565b600181811c908216806200025657607f821691505b602082108114156200027857634e487b7160e01b600052602260045260246000fd5b50919050565b60805160a051611e2e620002b2600039600081816104c00152610c1e015260008181610281015261157a0152611e2e6000f3fe608060405234801561001057600080fd5b506004361061021c5760003560e01c8063715018a611610125578063bc4c4b37116100ad578063e7841ec01161007c578063e7841ec01461052e578063e98030c714610536578063f2fde38b14610549578063fbcbc0f11461055c578063ffb2c4791461056f57600080fd5b8063bc4c4b37146104a8578063be10b614146104bb578063dd62ed3e146104e2578063e30443bc1461051b57600080fd5b806395d89b41116100f457806395d89b411461043e578063a457c2d714610446578063a8b9d24014610459578063a9059cbb1461046c578063aafd847a1461047f57600080fd5b8063715018a61461040957806385a6b3ae146104115780638da5cb5b1461041a57806391b89fba1461042b57600080fd5b8063313ce567116101a85780634e7b827f116101775780634e7b827f146103545780635183d6fd146103775780636a474002146103cf5780636f2789ec146103d757806370a08231146103e057600080fd5b8063313ce5671461030a57806331e79db0146103195780633243c7911461032e578063395093511461034157600080fd5b80631eccdbe2116101ef5780631eccdbe21461027c578063226cfa3d146102bb57806323b872dd146102db57806327ce0147146102ee5780633009a6091461030157600080fd5b806306fdde0314610221578063095ea7b31461023f57806309bbedde1461026257806318160ddd14610274575b600080fd5b61022961059d565b6040516102369190611a9c565b60405180910390f35b61025261024d366004611b06565b61062f565b6040519015158152602001610236565b600a545b604051908152602001610236565b600254610266565b6102a37f000000000000000000000000000000000000000000000000000000000000000081565b6040516001600160a01b039091168152602001610236565b6102666102c9366004611b32565b60106020526000908152604090205481565b6102526102e9366004611b4f565b610646565b6102666102fc366004611b32565b6106f5565b610266600e5481565b60405160128152602001610236565b61032c610327366004611b32565b610751565b005b61032c61033c366004611b90565b610811565b61025261034f366004611b06565b6108cf565b610252610362366004611b32565b600f6020526000908152604090205460ff1681565b61038a610385366004611b90565b61090b565b604080516001600160a01b0390991689526020890197909752958701949094526060860192909252608085015260a084015260c083015260e082015261010001610236565b61032c61097a565b61026660115481565b6102666103ee366004611b32565b6001600160a01b031660009081526020819052604090205490565b61032c6109ff565b61026660095481565b6005546001600160a01b03166102a3565b610266610439366004611b32565b610a33565b610229610a3e565b610252610454366004611b06565b610a4d565b610266610467366004611b32565b610ae6565b61025261047a366004611b06565b610b12565b61026661048d366004611b32565b6001600160a01b031660009081526008602052604090205490565b6102526104b6366004611bb7565b610b1f565b6102667f000000000000000000000000000000000000000000000000000000000000000081565b6102666104f0366004611bf0565b6001600160a01b03918216600090815260016020908152604080832093909416825291909152205490565b61032c610529366004611b06565b610bcd565b600e54610266565b61032c610544366004611b90565b610c85565b61032c610557366004611b32565b610df5565b61038a61056a366004611b32565b610e8d565b61058261057d366004611b90565b610f76565b60408051938452602084019290925290820152606001610236565b6060600380546105ac90611c1e565b80601f01602080910402602001604051908101604052809291908181526020018280546105d890611c1e565b80156106255780601f106105fa57610100808354040283529160200191610625565b820191906000526020600020905b81548152906001019060200180831161060857829003601f168201915b5050505050905090565b600061063c338484611091565b5060015b92915050565b60006106538484846111b5565b6001600160a01b0384166000908152600160209081526040808320338452909152902054828110156106dd5760405162461bcd60e51b815260206004820152602860248201527f45524332303a207472616e7366657220616d6f756e74206578636565647320616044820152676c6c6f77616e636560c01b60648201526084015b60405180910390fd5b6106ea8533858403611091565b506001949350505050565b6001600160a01b03811660009081526007602090815260408083205491839052822054600654600160801b92610747926107429261073c916107379190611212565b611225565b90611235565b611273565b6106409190611c6f565b6005546001600160a01b0316331461077b5760405162461bcd60e51b81526004016106d490611c91565b6001600160a01b0381166000908152600f602052604090205460ff16156107a157600080fd5b6001600160a01b0381166000908152600f60205260408120805460ff191660011790556107cf908290611286565b6107da600a826112eb565b6040516001600160a01b038216907fa878b31040b2e6d0a9a3d3361209db3908ba62014b0dca52adbaee451d128b2590600090a250565b6005546001600160a01b0316331461083b5760405162461bcd60e51b81526004016106d490611c91565b600061084660025490565b1161085057600080fd5b80156108cc5761088361086260025490565b61087083600160801b611212565b61087a9190611c6f565b60065490611426565b60065560405181815233907fa493a9229478c3fcd73f66d2cdeb7f94fd0f341da924d1054236d784541165119060200160405180910390a26009546108c89082611426565b6009555b50565b3360008181526001602090815260408083206001600160a01b0387168452909152812054909161063c918590610906908690611cc6565b611091565b600080600080600080600080610920600a5490565b891061094557506000965060001995508594508693508392508291508190508061096f565b6000610952600a8b611432565b905061095d81610e8d565b98509850985098509850985098509850505b919395975091939597565b60405162461bcd60e51b815260206004820152604c60248201527f544f4b454e5f4469766964656e645f547261636b65723a20557365207468652060448201527f27636c61696d272066756e6374696f6e206f6e20746865206d61696e20544f4b60648201526b22a71031b7b73a3930b1ba1760a11b608482015260a4016106d4565b565b6005546001600160a01b03163314610a295760405162461bcd60e51b81526004016106d490611c91565b6109fd6000611465565b600061064082610ae6565b6060600480546105ac90611c1e565b3360009081526001602090815260408083206001600160a01b038616845290915281205482811015610acf5760405162461bcd60e51b815260206004820152602560248201527f45524332303a2064656372656173656420616c6c6f77616e63652062656c6f77604482015264207a65726f60d81b60648201526084016106d4565b610adc3385858403611091565b5060019392505050565b6001600160a01b03811660009081526008602052604081205461064090610b0c846106f5565b906114b7565b600061063c3384846111b5565b6005546000906001600160a01b03163314610b4c5760405162461bcd60e51b81526004016106d490611c91565b6000610b57846114c3565b90508015610bc3576001600160a01b038416600081815260106020526040908190204290555184151591907fa2c38e2d2fb7e3e1912d937fd1ca11ed6d51864dee4cfa7a7bf02becd7acf09290610bb19085815260200190565b60405180910390a36001915050610640565b5060009392505050565b6005546001600160a01b03163314610bf75760405162461bcd60e51b81526004016106d490611c91565b6001600160a01b0382166000908152600f602052604090205460ff1615610c1c575050565b7f00000000000000000000000000000000000000000000000000000000000000008110610c5e57610c4d8282611286565b610c59600a8383611648565b610c74565b610c69826000611286565b610c74600a836112eb565b610c7f826001610b1f565b505b5050565b6005546001600160a01b03163314610caf5760405162461bcd60e51b81526004016106d490611c91565b610e108110158015610cc45750620151808111155b610d4a5760405162461bcd60e51b815260206004820152604b60248201527f544f4b454e5f4469766964656e645f547261636b65723a20636c61696d57616960448201527f74206d757374206265207570646174656420746f206265747765656e2031206160648201526a6e6420323420686f75727360a81b608482015260a4016106d4565b601154811415610dc25760405162461bcd60e51b815260206004820152603d60248201527f544f4b454e5f4469766964656e645f547261636b65723a2043616e6e6f74207560448201527f706461746520636c61696d5761697420746f2073616d652076616c756500000060648201526084016106d4565b60115460405182907f474ea64804364a1e29a4487ddb63c3342a2dd826ccd8acf48825e680a0e6f20f90600090a3601155565b6005546001600160a01b03163314610e1f5760405162461bcd60e51b81526004016106d490611c91565b6001600160a01b038116610e845760405162461bcd60e51b815260206004820152602660248201527f4f776e61626c653a206e6577206f776e657220697320746865207a65726f206160448201526564647265737360d01b60648201526084016106d4565b6108cc81611465565b806000808080808080610ea1600a896116f1565b9650600019955060008712610f0357600e54871115610ecf57600e54610ec890889061173c565b9550610f03565b600e54600a5460009110610ee4576000610ef3565b600e54600a54610ef3916114b7565b9050610eff8882611235565b9650505b610f0c88610ae6565b9450610f17886106f5565b6001600160a01b038916600090815260106020526040902054909450925082610f41576000610f4f565b601154610f4f908490611426565b9150428211610f5f576000610f69565b610f6982426114b7565b9050919395975091939597565b600a546000908190819080610f96575050600e546000925082915061108a565b600e546000805a90506000805b8984108015610fb157508582105b156110795784610fc081611cde565b600a5490965086109050610fd357600094505b6000600a6000018681548110610feb57610feb611cf9565b60009182526020808320909101546001600160a01b0316808352601090915260409091205490915061101c90611779565b1561103f5761102c816001610b1f565b1561103f578161103b81611cde565b9250505b8261104981611cde565b93505060005a9050808511156110705761106d61106686836114b7565b8790611426565b95505b9350610fa39050565b600e85905590975095509193505050505b9193909250565b6001600160a01b0383166110f35760405162461bcd60e51b8152602060048201526024808201527f45524332303a20617070726f76652066726f6d20746865207a65726f206164646044820152637265737360e01b60648201526084016106d4565b6001600160a01b0382166111545760405162461bcd60e51b815260206004820152602260248201527f45524332303a20617070726f766520746f20746865207a65726f206164647265604482015261737360f01b60648201526084016106d4565b6001600160a01b0383811660008181526001602090815260408083209487168084529482529182902085905590518481527f8c5be1e5ebec7d5bd14f71427d1e84f3dd0314c0f7b2291e5b200ac8c7c3b925910160405180910390a3505050565b60405162461bcd60e51b815260206004820152602c60248201527f544f4b454e5f4469766964656e645f547261636b65723a204e6f207472616e7360448201526b19995c9cc8185b1b1bddd95960a21b60648201526084016106d4565b600061121e8284611d0f565b9392505050565b6000818181121561064057600080fd5b6000806112428385611d2e565b9050600083121580156112555750838112155b8061126a575060008312801561126a57508381125b61121e57600080fd5b60008082121561128257600080fd5b5090565b6001600160a01b038216600090815260208190526040902054808211156112c55760006112b383836114b7565b90506112bf84826117a0565b50610c7f565b80821015610c7f5760006112d982846114b7565b90506112e58482611804565b50505050565b6001600160a01b038116600090815260038301602052604090205460ff16611311575050565b6001600160a01b03811660009081526003830160209081526040808320805460ff191690556001808601835281842084905560028601909252822054845490929161135b91611d6f565b9050600084600001828154811061137457611374611cf9565b60009182526020808320909101546001600160a01b039081168084526002890190925260408084208790559087168352822091909155855490915081908690859081106113c3576113c3611cf9565b600091825260209091200180546001600160a01b0319166001600160a01b039290921691909117905584548590806113fd576113fd611d86565b600082815260209020810160001990810180546001600160a01b03191690550190555050505050565b600061121e8284611cc6565b600082600001828154811061144957611449611cf9565b6000918252602090912001546001600160a01b03169392505050565b600580546001600160a01b038381166001600160a01b0319831681179093556040519116919082907f8be0079c531659141344cd1fd0a4f28419497f9722a3daafe3b4186f6b6457e090600090a35050565b600061121e8284611d6f565b6000806114cf83610ae6565b9050801561163f576001600160a01b0383166000908152600860205260409020546114fa9082611426565b6001600160a01b038416600081815260086020526040908190209290925590517fee503bee2bb6a87e57bc57db795f98137327401a0e7b7ce42e37926cc1a9ca4d906115499084815260200190565b60405180910390a260405163a9059cbb60e01b81526001600160a01b038481166004830152602482018390526000917f00000000000000000000000000000000000000000000000000000000000000009091169063a9059cbb906044016020604051808303816000875af11580156115c5573d6000803e3d6000fd5b505050506040513d601f19601f820116820180604052508101906115e99190611d9c565b905080611638576001600160a01b03841660009081526008602052604090205461161390836114b7565b6001600160a01b03909416600090815260086020526040812094909455509192915050565b5092915050565b50600092915050565b6001600160a01b038216600090815260038401602052604090205460ff161561168d576001600160a01b03821660009081526001840160205260409020819055610c7f565b6001600160a01b03821660008181526003850160209081526040808320805460ff19166001908117909155878101835281842086905587546002890184529184208290558101875586835291200180546001600160a01b0319169091179055505050565b6001600160a01b038116600090815260038301602052604081205460ff1661171c5750600019610640565b506001600160a01b03166000908152600291909101602052604090205490565b6000806117498385611db9565b90506000831215801561175c5750838113155b8061126a575060008312801561126a575083811361121e57600080fd5b60004282111561178b57506000919050565b60115461179842846114b7565b101592915050565b6117aa8282611848565b6117e46117c56107378360065461121290919063ffffffff16565b6001600160a01b0384166000908152600760205260409020549061173c565b6001600160a01b0390921660009081526007602052604090209190915550565b61180e828261193b565b6117e46118296107378360065461121290919063ffffffff16565b6001600160a01b03841660009081526007602052604090205490611235565b6001600160a01b03821661189e5760405162461bcd60e51b815260206004820152601f60248201527f45524332303a206d696e7420746f20746865207a65726f20616464726573730060448201526064016106d4565b6118aa60008383610c7f565b80600260008282546118bc9190611cc6565b90915550506001600160a01b038216600090815260208190526040812080548392906118e9908490611cc6565b90915550506040518181526001600160a01b038316906000907fddf252ad1be2c89b69c2b068fc378daa952ba7f163c4a11628f55a4df523b3ef9060200160405180910390a3610c8160008383610c7f565b6001600160a01b03821661199b5760405162461bcd60e51b815260206004820152602160248201527f45524332303a206275726e2066726f6d20746865207a65726f206164647265736044820152607360f81b60648201526084016106d4565b6119a782600083610c7f565b6001600160a01b03821660009081526020819052604090205481811015611a1b5760405162461bcd60e51b815260206004820152602260248201527f45524332303a206275726e20616d6f756e7420657863656564732062616c616e604482015261636560f01b60648201526084016106d4565b6001600160a01b0383166000908152602081905260408120838303905560028054849290611a4a908490611d6f565b90915550506040518281526000906001600160a01b038516907fddf252ad1be2c89b69c2b068fc378daa952ba7f163c4a11628f55a4df523b3ef9060200160405180910390a3610c7f83600084610c7f565b600060208083528351808285015260005b81811015611ac957858101830151858201604001528201611aad565b81811115611adb576000604083870101525b50601f01601f1916929092016040019392505050565b6001600160a01b03811681146108cc57600080fd5b60008060408385031215611b1957600080fd5b8235611b2481611af1565b946020939093013593505050565b600060208284031215611b4457600080fd5b813561121e81611af1565b600080600060608486031215611b6457600080fd5b8335611b6f81611af1565b92506020840135611b7f81611af1565b929592945050506040919091013590565b600060208284031215611ba257600080fd5b5035919050565b80151581146108cc57600080fd5b60008060408385031215611bca57600080fd5b8235611bd581611af1565b91506020830135611be581611ba9565b809150509250929050565b60008060408385031215611c0357600080fd5b8235611c0e81611af1565b91506020830135611be581611af1565b600181811c90821680611c3257607f821691505b60208210811415611c5357634e487b7160e01b600052602260045260246000fd5b50919050565b634e487b7160e01b600052601160045260246000fd5b600082611c8c57634e487b7160e01b600052601260045260246000fd5b500490565b6020808252818101527f4f776e61626c653a2063616c6c6572206973206e6f7420746865206f776e6572604082015260600190565b60008219821115611cd957611cd9611c59565b500190565b6000600019821415611cf257611cf2611c59565b5060010190565b634e487b7160e01b600052603260045260246000fd5b6000816000190483118215151615611d2957611d29611c59565b500290565b600080821280156001600160ff1b0384900385131615611d5057611d50611c59565b600160ff1b8390038412811615611d6957611d69611c59565b50500190565b600082821015611d8157611d81611c59565b500390565b634e487b7160e01b600052603160045260246000fd5b600060208284031215611dae57600080fd5b815161121e81611ba9565b60008083128015600160ff1b850184121615611dd757611dd7611c59565b6001600160ff1b0384018313811615611df257611df2611c59565b5050039056fea26469706673582212205d924b10d1ed65f2e815659732ec3fee34ae56f50c1f87086b17936757e32f5c64736f6c634300080b0033",
    "sourcePath": "c:/Users/aceso/Desktop/BUSDTracker/contracts/BUSDRewards.sol",
    "compiler": {
        "name": "solc",
        "version": "0.8.11+commit.d7f03943"
    },
    "functionHashes": {
        "accumulativeDividendOf(address)": "27ce0147",
        "allowance(address,address)": "dd62ed3e",
        "approve(address,uint256)": "095ea7b3",
        "balanceOf(address)": "70a08231",
        "busdTracker()": "1eccdbe2",
        "claimWait()": "6f2789ec",
        "decimals()": "313ce567",
        "decreaseAllowance(address,uint256)": "a457c2d7",
        "distributeDividends(uint256)": "3243c791",
        "dividendOf(address)": "91b89fba",
        "excludeFromDividends(address)": "31e79db0",
        "excludedFromDividends(address)": "4e7b827f",
        "getAccount(address)": "fbcbc0f1",
        "getAccountAtIndex(uint256)": "5183d6fd",
        "getLastProcessedIndex()": "e7841ec0",
        "getNumberOfTokenHolders()": "09bbedde",
        "increaseAllowance(address,uint256)": "39509351",
        "lastClaimTimes(address)": "226cfa3d",
        "lastProcessedIndex()": "3009a609",
        "minimumTokenBalanceForDividends()": "be10b614",
        "name()": "06fdde03",
        "owner()": "8da5cb5b",
        "process(uint256)": "ffb2c479",
        "processAccount(address,bool)": "bc4c4b37",
        "renounceOwnership()": "715018a6",
        "setBalance(address,uint256)": "e30443bc",
        "symbol()": "95d89b41",
        "totalDividendsDistributed()": "85a6b3ae",
        "totalSupply()": "18160ddd",
        "transfer(address,uint256)": "a9059cbb",
        "transferFrom(address,address,uint256)": "23b872dd",
        "transferOwnership(address)": "f2fde38b",
        "updateClaimWait(uint256)": "e98030c7",
        "withdrawDividend()": "6a474002",
        "withdrawableDividendOf(address)": "a8b9d240",
        "withdrawnDividendOf(address)": "aafd847a"
    },
    "gasEstimates": {
        "creation": {
            "codeDepositCost": "1545200",
            "executionCost": "infinite",
            "totalCost": "infinite"
        },
        "external": {
            "accumulativeDividendOf(address)": "infinite",
            "allowance(address,address)": "infinite",
            "approve(address,uint256)": "24660",
            "balanceOf(address)": "2667",
            "busdTracker()": "infinite",
            "claimWait()": "2406",
            "decimals()": "223",
            "decreaseAllowance(address,uint256)": "26949",
            "distributeDividends(uint256)": "infinite",
            "dividendOf(address)": "infinite",
            "excludeFromDividends(address)": "infinite",
            "excludedFromDividends(address)": "2570",
            "getAccount(address)": "infinite",
            "getAccountAtIndex(uint256)": "infinite",
            "getLastProcessedIndex()": "2336",
            "getNumberOfTokenHolders()": "2372",
            "increaseAllowance(address,uint256)": "27041",
            "lastClaimTimes(address)": "2581",
            "lastProcessedIndex()": "2429",
            "minimumTokenBalanceForDividends()": "infinite",
            "name()": "infinite",
            "owner()": "2421",
            "process(uint256)": "infinite",
            "processAccount(address,bool)": "infinite",
            "renounceOwnership()": "28163",
            "setBalance(address,uint256)": "infinite",
            "symbol()": "infinite",
            "totalDividendsDistributed()": "2363",
            "totalSupply()": "2405",
            "transfer(address,uint256)": "586",
            "transferFrom(address,address,uint256)": "infinite",
            "transferOwnership(address)": "infinite",
            "updateClaimWait(uint256)": "30343",
            "withdrawDividend()": "383",
            "withdrawableDividendOf(address)": "infinite",
            "withdrawnDividendOf(address)": "2664"
        },
        "internal": {
            "_transfer(address,address,uint256)": "infinite",
            "canAutoClaim(uint256)": "2267"
        }
    }
}